{
  "contractName": "TicTacToe",
  "abi": [
    {
      "inputs": [],
      "stateMutability": "nonpayable",
      "type": "constructor"
    },
    {
      "anonymous": false,
      "inputs": [
        {
          "indexed": true,
          "internalType": "address",
          "name": "account",
          "type": "address"
        },
        {
          "indexed": true,
          "internalType": "address",
          "name": "operator",
          "type": "address"
        },
        {
          "indexed": false,
          "internalType": "bool",
          "name": "approved",
          "type": "bool"
        }
      ],
      "name": "ApprovalForAll",
      "type": "event"
    },
    {
      "anonymous": false,
      "inputs": [
        {
          "indexed": true,
          "internalType": "uint256",
          "name": "gameId",
          "type": "uint256"
        },
        {
          "indexed": true,
          "internalType": "address",
          "name": "player1",
          "type": "address"
        },
        {
          "indexed": true,
          "internalType": "address",
          "name": "token",
          "type": "address"
        },
        {
          "indexed": false,
          "internalType": "uint256",
          "name": "balance1",
          "type": "uint256"
        }
      ],
      "name": "Join",
      "type": "event"
    },
    {
      "anonymous": false,
      "inputs": [
        {
          "indexed": true,
          "internalType": "uint256",
          "name": "gameId",
          "type": "uint256"
        },
        {
          "indexed": false,
          "internalType": "uint256",
          "name": "turn",
          "type": "uint256"
        },
        {
          "indexed": false,
          "internalType": "uint256",
          "name": "row",
          "type": "uint256"
        },
        {
          "indexed": false,
          "internalType": "uint256",
          "name": "col",
          "type": "uint256"
        }
      ],
      "name": "Play",
      "type": "event"
    },
    {
      "anonymous": false,
      "inputs": [
        {
          "indexed": true,
          "internalType": "uint256",
          "name": "gameId",
          "type": "uint256"
        },
        {
          "indexed": true,
          "internalType": "address",
          "name": "player0",
          "type": "address"
        },
        {
          "indexed": true,
          "internalType": "address",
          "name": "token",
          "type": "address"
        },
        {
          "indexed": false,
          "internalType": "uint256",
          "name": "balance0",
          "type": "uint256"
        }
      ],
      "name": "Start",
      "type": "event"
    },
    {
      "anonymous": false,
      "inputs": [
        {
          "indexed": true,
          "internalType": "uint256",
          "name": "gameId",
          "type": "uint256"
        },
        {
          "indexed": true,
          "internalType": "address",
          "name": "player0",
          "type": "address"
        },
        {
          "indexed": true,
          "internalType": "address",
          "name": "player1",
          "type": "address"
        }
      ],
      "name": "Tie",
      "type": "event"
    },
    {
      "anonymous": false,
      "inputs": [
        {
          "indexed": true,
          "internalType": "address",
          "name": "operator",
          "type": "address"
        },
        {
          "indexed": true,
          "internalType": "address",
          "name": "from",
          "type": "address"
        },
        {
          "indexed": true,
          "internalType": "address",
          "name": "to",
          "type": "address"
        },
        {
          "indexed": false,
          "internalType": "uint256[]",
          "name": "ids",
          "type": "uint256[]"
        },
        {
          "indexed": false,
          "internalType": "uint256[]",
          "name": "values",
          "type": "uint256[]"
        }
      ],
      "name": "TransferBatch",
      "type": "event"
    },
    {
      "anonymous": false,
      "inputs": [
        {
          "indexed": true,
          "internalType": "address",
          "name": "operator",
          "type": "address"
        },
        {
          "indexed": true,
          "internalType": "address",
          "name": "from",
          "type": "address"
        },
        {
          "indexed": true,
          "internalType": "address",
          "name": "to",
          "type": "address"
        },
        {
          "indexed": false,
          "internalType": "uint256",
          "name": "id",
          "type": "uint256"
        },
        {
          "indexed": false,
          "internalType": "uint256",
          "name": "value",
          "type": "uint256"
        }
      ],
      "name": "TransferSingle",
      "type": "event"
    },
    {
      "anonymous": false,
      "inputs": [
        {
          "indexed": false,
          "internalType": "string",
          "name": "value",
          "type": "string"
        },
        {
          "indexed": true,
          "internalType": "uint256",
          "name": "id",
          "type": "uint256"
        }
      ],
      "name": "URI",
      "type": "event"
    },
    {
      "anonymous": false,
      "inputs": [
        {
          "indexed": true,
          "internalType": "uint256",
          "name": "gameId",
          "type": "uint256"
        },
        {
          "indexed": true,
          "internalType": "address",
          "name": "winner",
          "type": "address"
        }
      ],
      "name": "Win",
      "type": "event"
    },
    {
      "inputs": [
        {
          "internalType": "address",
          "name": "account",
          "type": "address"
        },
        {
          "internalType": "uint256",
          "name": "id",
          "type": "uint256"
        }
      ],
      "name": "balanceOf",
      "outputs": [
        {
          "internalType": "uint256",
          "name": "",
          "type": "uint256"
        }
      ],
      "stateMutability": "view",
      "type": "function",
      "constant": true
    },
    {
      "inputs": [
        {
          "internalType": "address[]",
          "name": "accounts",
          "type": "address[]"
        },
        {
          "internalType": "uint256[]",
          "name": "ids",
          "type": "uint256[]"
        }
      ],
      "name": "balanceOfBatch",
      "outputs": [
        {
          "internalType": "uint256[]",
          "name": "",
          "type": "uint256[]"
        }
      ],
      "stateMutability": "view",
      "type": "function",
      "constant": true
    },
    {
      "inputs": [
        {
          "internalType": "uint256",
          "name": "",
          "type": "uint256"
        }
      ],
      "name": "games",
      "outputs": [
        {
          "internalType": "address",
          "name": "token",
          "type": "address"
        },
        {
          "internalType": "address",
          "name": "player0",
          "type": "address"
        },
        {
          "internalType": "address",
          "name": "player1",
          "type": "address"
        },
        {
          "internalType": "uint256",
          "name": "balance0",
          "type": "uint256"
        },
        {
          "internalType": "uint256",
          "name": "balance1",
          "type": "uint256"
        },
        {
          "internalType": "uint256",
          "name": "turn",
          "type": "uint256"
        },
        {
          "internalType": "uint256",
          "name": "time_limit",
          "type": "uint256"
        },
        {
          "internalType": "bool",
          "name": "isSet",
          "type": "bool"
        }
      ],
      "stateMutability": "view",
      "type": "function",
      "constant": true
    },
    {
      "inputs": [
        {
          "internalType": "address",
          "name": "account",
          "type": "address"
        },
        {
          "internalType": "address",
          "name": "operator",
          "type": "address"
        }
      ],
      "name": "isApprovedForAll",
      "outputs": [
        {
          "internalType": "bool",
          "name": "",
          "type": "bool"
        }
      ],
      "stateMutability": "view",
      "type": "function",
      "constant": true
    },
    {
      "inputs": [
        {
          "internalType": "address",
          "name": "from",
          "type": "address"
        },
        {
          "internalType": "address",
          "name": "to",
          "type": "address"
        },
        {
          "internalType": "uint256[]",
          "name": "ids",
          "type": "uint256[]"
        },
        {
          "internalType": "uint256[]",
          "name": "amounts",
          "type": "uint256[]"
        },
        {
          "internalType": "bytes",
          "name": "data",
          "type": "bytes"
        }
      ],
      "name": "safeBatchTransferFrom",
      "outputs": [],
      "stateMutability": "nonpayable",
      "type": "function"
    },
    {
      "inputs": [
        {
          "internalType": "address",
          "name": "from",
          "type": "address"
        },
        {
          "internalType": "address",
          "name": "to",
          "type": "address"
        },
        {
          "internalType": "uint256",
          "name": "id",
          "type": "uint256"
        },
        {
          "internalType": "uint256",
          "name": "amount",
          "type": "uint256"
        },
        {
          "internalType": "bytes",
          "name": "data",
          "type": "bytes"
        }
      ],
      "name": "safeTransferFrom",
      "outputs": [],
      "stateMutability": "nonpayable",
      "type": "function"
    },
    {
      "inputs": [
        {
          "internalType": "address",
          "name": "operator",
          "type": "address"
        },
        {
          "internalType": "bool",
          "name": "approved",
          "type": "bool"
        }
      ],
      "name": "setApprovalForAll",
      "outputs": [],
      "stateMutability": "nonpayable",
      "type": "function"
    },
    {
      "inputs": [
        {
          "internalType": "bytes4",
          "name": "interfaceId",
          "type": "bytes4"
        }
      ],
      "name": "supportsInterface",
      "outputs": [
        {
          "internalType": "bool",
          "name": "",
          "type": "bool"
        }
      ],
      "stateMutability": "view",
      "type": "function",
      "constant": true
    },
    {
      "inputs": [
        {
          "internalType": "uint256",
          "name": "",
          "type": "uint256"
        }
      ],
      "name": "uri",
      "outputs": [
        {
          "internalType": "string",
          "name": "",
          "type": "string"
        }
      ],
      "stateMutability": "view",
      "type": "function",
      "constant": true
    },
    {
      "inputs": [
        {
          "internalType": "address",
          "name": "token",
          "type": "address"
        },
        {
          "internalType": "uint256",
          "name": "balance",
          "type": "uint256"
        }
      ],
      "name": "start",
      "outputs": [],
      "stateMutability": "nonpayable",
      "type": "function"
    },
    {
      "inputs": [
        {
          "internalType": "uint256",
          "name": "gameId",
          "type": "uint256"
        },
        {
          "internalType": "uint256",
          "name": "balance",
          "type": "uint256"
        }
      ],
      "name": "join",
      "outputs": [],
      "stateMutability": "nonpayable",
      "type": "function"
    },
    {
      "inputs": [
        {
          "internalType": "uint256",
          "name": "gameId",
          "type": "uint256"
        },
        {
          "internalType": "uint256",
          "name": "row",
          "type": "uint256"
        },
        {
          "internalType": "uint256",
          "name": "column",
          "type": "uint256"
        }
      ],
      "name": "play",
      "outputs": [],
      "stateMutability": "nonpayable",
      "type": "function"
    },
    {
      "inputs": [
        {
          "internalType": "uint256",
          "name": "gameId",
          "type": "uint256"
        }
      ],
      "name": "claim_reward",
      "outputs": [],
      "stateMutability": "nonpayable",
      "type": "function"
    },
    {
      "inputs": [
        {
          "internalType": "uint256",
          "name": "gameId",
          "type": "uint256"
        }
      ],
      "name": "get_game_status",
      "outputs": [
        {
          "internalType": "address",
          "name": "",
          "type": "address"
        },
        {
          "internalType": "uint256",
          "name": "",
          "type": "uint256"
        },
        {
          "internalType": "address",
          "name": "",
          "type": "address"
        },
        {
          "internalType": "uint256",
          "name": "",
          "type": "uint256"
        },
        {
          "internalType": "address",
          "name": "",
          "type": "address"
        },
        {
          "internalType": "uint256",
          "name": "",
          "type": "uint256"
        },
        {
          "internalType": "uint256",
          "name": "",
          "type": "uint256"
        },
        {
          "internalType": "uint256",
          "name": "",
          "type": "uint256"
        },
        {
          "internalType": "uint256",
          "name": "",
          "type": "uint256"
        }
      ],
      "stateMutability": "view",
      "type": "function",
      "constant": true
    },
    {
      "inputs": [],
      "name": "get_blocktimestamp",
      "outputs": [
        {
          "internalType": "uint256",
          "name": "",
          "type": "uint256"
        }
      ],
      "stateMutability": "view",
      "type": "function",
      "constant": true
    }
  ],
  "bytecode": "0x60806040523480156200001157600080fd5b506040518060200160405280600081525062000033816200003a60201b60201c565b506200016b565b80600290805190602001906200005292919062000056565b5050565b828054620000649062000106565b90600052602060002090601f016020900481019282620000885760008555620000d4565b82601f10620000a357805160ff1916838001178555620000d4565b82800160010185558215620000d4579182015b82811115620000d3578251825591602001919060010190620000b6565b5b509050620000e39190620000e7565b5090565b5b8082111562000102576000816000905550600101620000e8565b5090565b600060028204905060018216806200011f57607f821691505b602082108114156200013657620001356200013c565b5b50919050565b7f4e487b7100000000000000000000000000000000000000000000000000000000600052602260045260246000fd5b61456f806200017b6000396000f3fe608060405234801561001057600080fd5b50600436106100f45760003560e01c806379e66b4611610097578063ab2e5a1f11610066578063ab2e5a1f146102b6578063c9d0ba85146102d2578063e985e9c5146102ee578063f242432a1461031e576100f4565b806379e66b4614610228578063a22cb46514610244578063a36f4c3314610260578063a4d83ec514610298576100f4565b8063117a5b90116100d3578063117a5b90146101895780632eb2c2d6146101c05780633c2d70e9146101dc5780634e1273f4146101f8576100f4565b8062fdd58e146100f957806301ffc9a7146101295780630e89341c14610159575b600080fd5b610113600480360381019061010e91906130df565b61033a565b6040516101209190613f6c565b60405180910390f35b610143600480360381019061013e91906131b0565b610403565b6040516101509190613d0f565b60405180910390f35b610173600480360381019061016e9190613202565b6104e5565b6040516101809190613d2a565b60405180910390f35b6101a3600480360381019061019e9190613202565b610579565b6040516101b7989796959493929190613a89565b60405180910390f35b6101da60048036038101906101d59190612f55565b61062e565b005b6101f660048036038101906101f191906130df565b610a24565b005b610212600480360381019061020d919061311b565b610c04565b60405161021f9190613cb6565b60405180910390f35b610242600480360381019061023d919061322b565b610db5565b005b61025e600480360381019061025991906130a3565b610fe1565b005b61027a60048036038101906102759190613202565b611162565b60405161028f99989796959493929190613c29565b60405180910390f35b6102a0611491565b6040516102ad9190613f6c565b60405180910390f35b6102d060048036038101906102cb9190613267565b611499565b005b6102ec60048036038101906102e79190613202565b611e88565b005b61030860048036038101906103039190612f19565b612120565b6040516103159190613d0f565b60405180910390f35b61033860048036038101906103339190613014565b6121b4565b005b60008073ffffffffffffffffffffffffffffffffffffffff168373ffffffffffffffffffffffffffffffffffffffff1614156103ab576040517f08c379a00000000000000000000000000000000000000000000000000000000081526004016103a290613d8c565b60405180910390fd5b60008083815260200190815260200160002060008473ffffffffffffffffffffffffffffffffffffffff1673ffffffffffffffffffffffffffffffffffffffff16815260200190815260200160002054905092915050565b60007fd9b67a26000000000000000000000000000000000000000000000000000000007bffffffffffffffffffffffffffffffffffffffffffffffffffffffff1916827bffffffffffffffffffffffffffffffffffffffffffffffffffffffff191614806104ce57507f0e89341c000000000000000000000000000000000000000000000000000000007bffffffffffffffffffffffffffffffffffffffffffffffffffffffff1916827bffffffffffffffffffffffffffffffffffffffffffffffffffffffff1916145b806104de57506104dd826124cc565b5b9050919050565b6060600280546104f490614301565b80601f016020809104026020016040519081016040528092919081815260200182805461052090614301565b801561056d5780601f106105425761010080835404028352916020019161056d565b820191906000526020600020905b81548152906001019060200180831161055057829003601f168201915b50505050509050919050565b60046020528060005260406000206000915090508060000160009054906101000a900473ffffffffffffffffffffffffffffffffffffffff16908060010160009054906101000a900473ffffffffffffffffffffffffffffffffffffffff16908060020160009054906101000a900473ffffffffffffffffffffffffffffffffffffffff16908060030154908060040154908060050154908060060154908060080160009054906101000a900460ff16905088565b8151835114610672576040517f08c379a000000000000000000000000000000000000000000000000000000000815260040161066990613f4c565b60405180910390fd5b600073ffffffffffffffffffffffffffffffffffffffff168473ffffffffffffffffffffffffffffffffffffffff1614156106e2576040517f08c379a00000000000000000000000000000000000000000000000000000000081526004016106d990613dec565b60405180910390fd5b6106ea612536565b73ffffffffffffffffffffffffffffffffffffffff168573ffffffffffffffffffffffffffffffffffffffff161480610730575061072f8561072a612536565b612120565b5b61076f576040517f08c379a000000000000000000000000000000000000000000000000000000000815260040161076690613e0c565b60405180910390fd5b6000610779612536565b905061078981878787878761253e565b60005b845181101561098f5760008582815181106107d0577f4e487b7100000000000000000000000000000000000000000000000000000000600052603260045260246000fd5b602002602001015190506000858381518110610815577f4e487b7100000000000000000000000000000000000000000000000000000000600052603260045260246000fd5b60200260200101519050600080600084815260200190815260200160002060008b73ffffffffffffffffffffffffffffffffffffffff1673ffffffffffffffffffffffffffffffffffffffff168152602001908152602001600020549050818110156108b6576040517f08c379a00000000000000000000000000000000000000000000000000000000081526004016108ad90613e4c565b60405180910390fd5b81816108c291906141f8565b60008085815260200190815260200160002060008c73ffffffffffffffffffffffffffffffffffffffff1673ffffffffffffffffffffffffffffffffffffffff168152602001908152602001600020819055508160008085815260200190815260200160002060008b73ffffffffffffffffffffffffffffffffffffffff1673ffffffffffffffffffffffffffffffffffffffff16815260200190815260200160002060008282546109749190614111565b925050819055505050508061098890614333565b905061078c565b508473ffffffffffffffffffffffffffffffffffffffff168673ffffffffffffffffffffffffffffffffffffffff168273ffffffffffffffffffffffffffffffffffffffff167f4a39dc06d4c0dbc64b70af90fd698a233a518aa5d07e595d983b8c0526c8f7fb8787604051610a06929190613cd8565b60405180910390a4610a1c818787878787612546565b505050505050565b8173ffffffffffffffffffffffffffffffffffffffff166323b872dd3330846040518463ffffffff1660e01b8152600401610a6193929190613b6f565b602060405180830381600087803b158015610a7b57600080fd5b505af1158015610a8f573d6000803e3d6000fd5b505050506040513d601f19601f82011682018060405250810190610ab39190613187565b50610abe6003612716565b6000610aca600361272c565b9050600060046000838152602001908152602001600020905060018160080160006101000a81548160ff021916908315150217905550610b098261273a565b838160000160006101000a81548173ffffffffffffffffffffffffffffffffffffffff021916908373ffffffffffffffffffffffffffffffffffffffff160217905550338160010160006101000a81548173ffffffffffffffffffffffffffffffffffffffff021916908373ffffffffffffffffffffffffffffffffffffffff1602179055508281600301819055508373ffffffffffffffffffffffffffffffffffffffff163373ffffffffffffffffffffffffffffffffffffffff16837f4e2c0d5cdf3ed1506e2b61635db6126329dd3a1b3ff5d91ff0337ddb3082754b86604051610bf69190613f6c565b60405180910390a450505050565b60608151835114610c4a576040517f08c379a0000000000000000000000000000000000000000000000000000000008152600401610c4190613f0c565b60405180910390fd5b6000835167ffffffffffffffff811115610c8d577f4e487b7100000000000000000000000000000000000000000000000000000000600052604160045260246000fd5b604051908082528060200260200182016040528015610cbb5781602001602082028036833780820191505090505b50905060005b8451811015610daa57610d54858281518110610d06577f4e487b7100000000000000000000000000000000000000000000000000000000600052603260045260246000fd5b6020026020010151858381518110610d47577f4e487b7100000000000000000000000000000000000000000000000000000000600052603260045260246000fd5b602002602001015161033a565b828281518110610d8d577f4e487b7100000000000000000000000000000000000000000000000000000000600052603260045260246000fd5b60200260200101818152505080610da390614333565b9050610cc1565b508091505092915050565b60006004600084815260200190815260200160002090508060080160009054906101000a900460ff168015610e3a5750600073ffffffffffffffffffffffffffffffffffffffff168160020160009054906101000a900473ffffffffffffffffffffffffffffffffffffffff1673ffffffffffffffffffffffffffffffffffffffff16145b8015610e495750818160030154145b610e5257600080fd5b8060000160009054906101000a900473ffffffffffffffffffffffffffffffffffffffff1673ffffffffffffffffffffffffffffffffffffffff166323b872dd3330856040518463ffffffff1660e01b8152600401610eb393929190613b6f565b602060405180830381600087803b158015610ecd57600080fd5b505af1158015610ee1573d6000803e3d6000fd5b505050506040513d601f19601f82011682018060405250810190610f059190613187565b50338160020160006101000a81548173ffffffffffffffffffffffffffffffffffffffff021916908373ffffffffffffffffffffffffffffffffffffffff1602179055508181600401819055508060000160009054906101000a900473ffffffffffffffffffffffffffffffffffffffff1673ffffffffffffffffffffffffffffffffffffffff163373ffffffffffffffffffffffffffffffffffffffff16847f5ba397fefbe224a8036109a153eea01ab25eadb596d8c2f1db4bf54f4dc1a24f85604051610fd49190613f6c565b60405180910390a4505050565b8173ffffffffffffffffffffffffffffffffffffffff16611000612536565b73ffffffffffffffffffffffffffffffffffffffff161415611057576040517f08c379a000000000000000000000000000000000000000000000000000000000815260040161104e90613eec565b60405180910390fd5b8060016000611064612536565b73ffffffffffffffffffffffffffffffffffffffff1673ffffffffffffffffffffffffffffffffffffffff16815260200190815260200160002060008473ffffffffffffffffffffffffffffffffffffffff1673ffffffffffffffffffffffffffffffffffffffff16815260200190815260200160002060006101000a81548160ff0219169083151502179055508173ffffffffffffffffffffffffffffffffffffffff16611111612536565b73ffffffffffffffffffffffffffffffffffffffff167f17307eab39ab6107e8899845ad3d59bd9653f200f220920489ca2b5937696c31836040516111569190613d0f565b60405180910390a35050565b600080600080600080600080600080600460008c8152602001908152602001600020905060006001826007016000808152602001908152602001600020600060028152602001908152602001600020546111bc9190614111565b6001836007016000808152602001908152602001600020600060018152602001908152602001600020546111f09190614111565b600a6111fc919061419e565b600184600701600080815260200190815260200160002060008081526020019081526020016000205461122f9190614111565b606461123b919061419e565b6112459190614111565b61124f9190614111565b90506000600183600701600060018152602001908152602001600020600060028152602001908152602001600020546112889190614111565b600184600701600060018152602001908152602001600020600060018152602001908152602001600020546112bd9190614111565b600a6112c9919061419e565b6001856007016000600181526020019081526020016000206000808152602001908152602001600020546112fd9190614111565b6064611309919061419e565b6113139190614111565b61131d9190614111565b90506000600184600701600060028152602001908152602001600020600060028152602001908152602001600020546113569190614111565b6001856007016000600281526020019081526020016000206000600181526020019081526020016000205461138b9190614111565b600a611397919061419e565b6001866007016000600281526020019081526020016000206000808152602001908152602001600020546113cb9190614111565b60646113d7919061419e565b6113e19190614111565b6113eb9190614111565b90508360010160009054906101000a900473ffffffffffffffffffffffffffffffffffffffff1684600301548560020160009054906101000a900473ffffffffffffffffffffffffffffffffffffffff1686600401548760000160009054906101000a900473ffffffffffffffffffffffffffffffffffffffff1688600501548888889c509c509c509c509c509c509c509c509c50505050509193959799909294969850565b600042905090565b60006004600085815260200190815260200160002090508060010160009054906101000a900473ffffffffffffffffffffffffffffffffffffffff1673ffffffffffffffffffffffffffffffffffffffff163373ffffffffffffffffffffffffffffffffffffffff16148061155d57508060020160009054906101000a900473ffffffffffffffffffffffffffffffffffffffff1673ffffffffffffffffffffffffffffffffffffffff163373ffffffffffffffffffffffffffffffffffffffff16145b61159c576040517f08c379a000000000000000000000000000000000000000000000000000000000815260040161159390613e8c565b60405180910390fd5b60008160020160009054906101000a900473ffffffffffffffffffffffffffffffffffffffff1673ffffffffffffffffffffffffffffffffffffffff163373ffffffffffffffffffffffffffffffffffffffff1614156115fb57600190505b6000826003015411611642576040517f08c379a000000000000000000000000000000000000000000000000000000000815260040161163990613e2c565b60405180910390fd5b600073ffffffffffffffffffffffffffffffffffffffff168260020160009054906101000a900473ffffffffffffffffffffffffffffffffffffffff1673ffffffffffffffffffffffffffffffffffffffff1614156116d6576040517f08c379a00000000000000000000000000000000000000000000000000000000081526004016116cd90613dac565b60405180910390fd5b600084101580156116e75750600384105b80156116f4575060008310155b80156117005750600383105b61173f576040517f08c379a000000000000000000000000000000000000000000000000000000000815260040161173690613f2c565b60405180910390fd5b6000826007016000868152602001908152602001600020600085815260200190815260200160002054146117a8576040517f08c379a000000000000000000000000000000000000000000000000000000000815260040161179f90613ecc565b60405180910390fd5b6000826006015414806117bf575081600601544211155b6117fe576040517f08c379a00000000000000000000000000000000000000000000000000000000081526004016117f590613e6c565b60405180910390fd5b8060ff16826005015414611847576040517f08c379a000000000000000000000000000000000000000000000000000000000815260040161183e90613eac565b60405180910390fd5b6001816118549190614167565b60ff1682600701600086815260200190815260200160002060008581526020019081526020016000208190555061188a85612823565b15611b0b578160000160009054906101000a900473ffffffffffffffffffffffffffffffffffffffff1673ffffffffffffffffffffffffffffffffffffffff1663a9059cbb8360010160009054906101000a900473ffffffffffffffffffffffffffffffffffffffff1684600301546040518363ffffffff1660e01b8152600401611916929190613c00565b602060405180830381600087803b15801561193057600080fd5b505af1158015611944573d6000803e3d6000fd5b505050506040513d601f19601f820116820180604052508101906119689190613187565b508160000160009054906101000a900473ffffffffffffffffffffffffffffffffffffffff1673ffffffffffffffffffffffffffffffffffffffff1663a9059cbb8360020160009054906101000a900473ffffffffffffffffffffffffffffffffffffffff1684600401546040518363ffffffff1660e01b81526004016119f0929190613c00565b602060405180830381600087803b158015611a0a57600080fd5b505af1158015611a1e573d6000803e3d6000fd5b505050506040513d601f19601f82011682018060405250810190611a429190613187565b506000826003018190555060008260040181905550600082600501819055508160020160009054906101000a900473ffffffffffffffffffffffffffffffffffffffff1673ffffffffffffffffffffffffffffffffffffffff168260010160009054906101000a900473ffffffffffffffffffffffffffffffffffffffff1673ffffffffffffffffffffffffffffffffffffffff16867f3212c233a5d7eb92cc9bc80249b62592fe1d4fbfdcbf9c8e78d3ad2864fc3a5a60405160405180910390a45050611e83565b611b18858260ff166128d5565b15611e085760008160ff161415611c17578160000160009054906101000a900473ffffffffffffffffffffffffffffffffffffffff1673ffffffffffffffffffffffffffffffffffffffff1663a9059cbb8360010160009054906101000a900473ffffffffffffffffffffffffffffffffffffffff1684600401548560030154611ba29190614111565b6040518363ffffffff1660e01b8152600401611bbf929190613c00565b602060405180830381600087803b158015611bd957600080fd5b505af1158015611bed573d6000803e3d6000fd5b505050506040513d601f19601f82011682018060405250810190611c119190613187565b50611d01565b8160000160009054906101000a900473ffffffffffffffffffffffffffffffffffffffff1673ffffffffffffffffffffffffffffffffffffffff1663a9059cbb8360020160009054906101000a900473ffffffffffffffffffffffffffffffffffffffff1684600401548560030154611c909190614111565b6040518363ffffffff1660e01b8152600401611cad929190613c00565b602060405180830381600087803b158015611cc757600080fd5b505af1158015611cdb573d6000803e3d6000fd5b505050506040513d601f19601f82011682018060405250810190611cff9190613187565b505b60008260030181905550600082600401819055506000826005018190555060008160ff161415611d98578160010160009054906101000a900473ffffffffffffffffffffffffffffffffffffffff1673ffffffffffffffffffffffffffffffffffffffff16857f5099dd6dac0a84e5cc1d9629b2e349cc5123e62fff80006667b71ca663638fc860405160405180910390a3611e01565b8160020160009054906101000a900473ffffffffffffffffffffffffffffffffffffffff1673ffffffffffffffffffffffffffffffffffffffff16857f5099dd6dac0a84e5cc1d9629b2e349cc5123e62fff80006667b71ca663638fc860405160405180910390a35b5050611e83565b60008160ff161415611e235760018260050181905550611e2e565b600082600501819055505b61025842611e3c9190614111565b8260060181905550847f8e301fff5ad6fd5062f8b51838478c973de9d3be11a6a487a1908b82f09ea05d828686604051611e7893929190613fb0565b60405180910390a250505b505050565b6000600460008381526020019081526020016000209050600073ffffffffffffffffffffffffffffffffffffffff168160020160009054906101000a900473ffffffffffffffffffffffffffffffffffffffff1673ffffffffffffffffffffffffffffffffffffffff1614158015611f04575060008160030154115b8015611f135750806006015442115b1561211c57600081600501541415612013578060000160009054906101000a900473ffffffffffffffffffffffffffffffffffffffff1673ffffffffffffffffffffffffffffffffffffffff1663a9059cbb8260020160009054906101000a900473ffffffffffffffffffffffffffffffffffffffff1683600401548460030154611f9e9190614111565b6040518363ffffffff1660e01b8152600401611fbb929190613c00565b602060405180830381600087803b158015611fd557600080fd5b505af1158015611fe9573d6000803e3d6000fd5b505050506040513d601f19601f8201168201806040525081019061200d9190613187565b506120fd565b8060000160009054906101000a900473ffffffffffffffffffffffffffffffffffffffff1673ffffffffffffffffffffffffffffffffffffffff1663a9059cbb8260010160009054906101000a900473ffffffffffffffffffffffffffffffffffffffff168360040154846003015461208c9190614111565b6040518363ffffffff1660e01b81526004016120a9929190613c00565b602060405180830381600087803b1580156120c357600080fd5b505af11580156120d7573d6000803e3d6000fd5b505050506040513d601f19601f820116820180604052508101906120fb9190613187565b505b6000816003018190555060008160040181905550600081600501819055505b5050565b6000600160008473ffffffffffffffffffffffffffffffffffffffff1673ffffffffffffffffffffffffffffffffffffffff16815260200190815260200160002060008373ffffffffffffffffffffffffffffffffffffffff1673ffffffffffffffffffffffffffffffffffffffff16815260200190815260200160002060009054906101000a900460ff16905092915050565b600073ffffffffffffffffffffffffffffffffffffffff168473ffffffffffffffffffffffffffffffffffffffff161415612224576040517f08c379a000000000000000000000000000000000000000000000000000000000815260040161221b90613dec565b60405180910390fd5b61222c612536565b73ffffffffffffffffffffffffffffffffffffffff168573ffffffffffffffffffffffffffffffffffffffff16148061227257506122718561226c612536565b612120565b5b6122b1576040517f08c379a00000000000000000000000000000000000000000000000000000000081526004016122a890613dcc565b60405180910390fd5b60006122bb612536565b90506122db8187876122cc8861297a565b6122d58861297a565b8761253e565b600080600086815260200190815260200160002060008873ffffffffffffffffffffffffffffffffffffffff1673ffffffffffffffffffffffffffffffffffffffff16815260200190815260200160002054905083811015612372576040517f08c379a000000000000000000000000000000000000000000000000000000000815260040161236990613e4c565b60405180910390fd5b838161237e91906141f8565b60008087815260200190815260200160002060008973ffffffffffffffffffffffffffffffffffffffff1673ffffffffffffffffffffffffffffffffffffffff168152602001908152602001600020819055508360008087815260200190815260200160002060008873ffffffffffffffffffffffffffffffffffffffff1673ffffffffffffffffffffffffffffffffffffffff16815260200190815260200160002060008282546124309190614111565b925050819055508573ffffffffffffffffffffffffffffffffffffffff168773ffffffffffffffffffffffffffffffffffffffff168373ffffffffffffffffffffffffffffffffffffffff167fc3d58168c5ae7397731d063d5bbf3d657854427343f4c083240f7aacaa2d0f6288886040516124ad929190613f87565b60405180910390a46124c3828888888888612a40565b50505050505050565b60007f01ffc9a7000000000000000000000000000000000000000000000000000000007bffffffffffffffffffffffffffffffffffffffffffffffffffffffff1916827bffffffffffffffffffffffffffffffffffffffffffffffffffffffff1916149050919050565b600033905090565b505050505050565b6125658473ffffffffffffffffffffffffffffffffffffffff16612c10565b1561270e578373ffffffffffffffffffffffffffffffffffffffff1663bc197c8187878686866040518663ffffffff1660e01b81526004016125ab959493929190613b07565b602060405180830381600087803b1580156125c557600080fd5b505af19250505080156125f657506040513d601f19601f820116820180604052508101906125f391906131d9565b60015b61268557612602614427565b8061260d575061264a565b806040517f08c379a00000000000000000000000000000000000000000000000000000000081526004016126419190613d2a565b60405180910390fd5b6040517f08c379a000000000000000000000000000000000000000000000000000000000815260040161267c90613d4c565b60405180910390fd5b63bc197c8160e01b7bffffffffffffffffffffffffffffffffffffffffffffffffffffffff1916817bffffffffffffffffffffffffffffffffffffffffffffffffffffffff19161461270c576040517f08c379a000000000000000000000000000000000000000000000000000000000815260040161270390613d6c565b60405180910390fd5b505b505050505050565b6001816000016000828254019250508190555050565b600081600001549050919050565b6000600460008381526020019081526020016000209050600081600501819055506000816004018190555060008160020160006101000a81548173ffffffffffffffffffffffffffffffffffffffff021916908373ffffffffffffffffffffffffffffffffffffffff1602179055506000816006018190555060005b600381101561281e5760005b600381101561280a576000836007016000848152602001908152602001600020600083815260200190815260200160002081905550808061280290614333565b9150506127c2565b50808061281690614333565b9150506127b6565b505050565b6000806004600084815260200190815260200160002090506000805b60038110156128b95760005b60038110156128a5576000846007016000848152602001908152602001600020600083815260200190815260200160002054111561289257828061288e90614333565b9350505b808061289d90614333565b91505061284b565b5080806128b190614333565b91505061283f565b50600981106128cd576001925050506128d0565b50505b919050565b60006128ed8383600060016002600060016002612c23565b80612909575061290883836000600160028060016000612c23565b5b156129175760019050612974565b60005b6003811015612972576129368484838485600060016002612c23565b80612950575061294f8484600060016002868788612c23565b5b1561295f576001915050612974565b808061296a90614333565b91505061291a565b505b92915050565b60606000600167ffffffffffffffff8111156129bf577f4e487b7100000000000000000000000000000000000000000000000000000000600052604160045260246000fd5b6040519080825280602002602001820160405280156129ed5781602001602082028036833780820191505090505b5090508281600081518110612a2b577f4e487b7100000000000000000000000000000000000000000000000000000000600052603260045260246000fd5b60200260200101818152505080915050919050565b612a5f8473ffffffffffffffffffffffffffffffffffffffff16612c10565b15612c08578373ffffffffffffffffffffffffffffffffffffffff1663f23a6e6187878686866040518663ffffffff1660e01b8152600401612aa5959493929190613ba6565b602060405180830381600087803b158015612abf57600080fd5b505af1925050508015612af057506040513d601f19601f82011682018060405250810190612aed91906131d9565b60015b612b7f57612afc614427565b80612b075750612b44565b806040517f08c379a0000000000000000000000000000000000000000000000000000000008152600401612b3b9190613d2a565b60405180910390fd5b6040517f08c379a0000000000000000000000000000000000000000000000000000000008152600401612b7690613d4c565b60405180910390fd5b63f23a6e6160e01b7bffffffffffffffffffffffffffffffffffffffffffffffffffffffff1916817bffffffffffffffffffffffffffffffffffffffffffffffffffffffff191614612c06576040517f08c379a0000000000000000000000000000000000000000000000000000000008152600401612bfd90613d6c565b60405180910390fd5b505b505050505050565b600080823b905060008111915050919050565b600080600460008b81526020019081526020016000209050600189612c489190614111565b8160070160008a8152602001908152602001600020600087815260200190815260200160002054148015612cad5750600189612c849190614111565b816007016000898152602001908152602001600020600086815260200190815260200160002054145b8015612cea5750600189612cc19190614111565b816007016000888152602001908152602001600020600085815260200190815260200160002054145b15612cf9576001915050612cfb565b505b98975050505050505050565b6000612d1a612d1584614018565b613fe7565b90508083825260208201905082856020860282011115612d3957600080fd5b60005b85811015612d695781612d4f8882612e1d565b845260208401935060208301925050600181019050612d3c565b5050509392505050565b6000612d86612d8184614044565b613fe7565b90508083825260208201905082856020860282011115612da557600080fd5b60005b85811015612dd55781612dbb8882612f04565b845260208401935060208301925050600181019050612da8565b5050509392505050565b6000612df2612ded84614070565b613fe7565b905082815260208101848484011115612e0a57600080fd5b612e158482856142bf565b509392505050565b600081359050612e2c816144dd565b92915050565b600082601f830112612e4357600080fd5b8135612e53848260208601612d07565b91505092915050565b600082601f830112612e6d57600080fd5b8135612e7d848260208601612d73565b91505092915050565b600081359050612e95816144f4565b92915050565b600081519050612eaa816144f4565b92915050565b600081359050612ebf8161450b565b92915050565b600081519050612ed48161450b565b92915050565b600082601f830112612eeb57600080fd5b8135612efb848260208601612ddf565b91505092915050565b600081359050612f1381614522565b92915050565b60008060408385031215612f2c57600080fd5b6000612f3a85828601612e1d565b9250506020612f4b85828601612e1d565b9150509250929050565b600080600080600060a08688031215612f6d57600080fd5b6000612f7b88828901612e1d565b9550506020612f8c88828901612e1d565b945050604086013567ffffffffffffffff811115612fa957600080fd5b612fb588828901612e5c565b935050606086013567ffffffffffffffff811115612fd257600080fd5b612fde88828901612e5c565b925050608086013567ffffffffffffffff811115612ffb57600080fd5b61300788828901612eda565b9150509295509295909350565b600080600080600060a0868803121561302c57600080fd5b600061303a88828901612e1d565b955050602061304b88828901612e1d565b945050604061305c88828901612f04565b935050606061306d88828901612f04565b925050608086013567ffffffffffffffff81111561308a57600080fd5b61309688828901612eda565b9150509295509295909350565b600080604083850312156130b657600080fd5b60006130c485828601612e1d565b92505060206130d585828601612e86565b9150509250929050565b600080604083850312156130f257600080fd5b600061310085828601612e1d565b925050602061311185828601612f04565b9150509250929050565b6000806040838503121561312e57600080fd5b600083013567ffffffffffffffff81111561314857600080fd5b61315485828601612e32565b925050602083013567ffffffffffffffff81111561317157600080fd5b61317d85828601612e5c565b9150509250929050565b60006020828403121561319957600080fd5b60006131a784828501612e9b565b91505092915050565b6000602082840312156131c257600080fd5b60006131d084828501612eb0565b91505092915050565b6000602082840312156131eb57600080fd5b60006131f984828501612ec5565b91505092915050565b60006020828403121561321457600080fd5b600061322284828501612f04565b91505092915050565b6000806040838503121561323e57600080fd5b600061324c85828601612f04565b925050602061325d85828601612f04565b9150509250929050565b60008060006060848603121561327c57600080fd5b600061328a86828701612f04565b935050602061329b86828701612f04565b92505060406132ac86828701612f04565b9150509250925092565b60006132c28383613a5c565b60208301905092915050565b6132d78161422c565b82525050565b60006132e8826140b0565b6132f281856140de565b93506132fd836140a0565b8060005b8381101561332e57815161331588826132b6565b9750613320836140d1565b925050600181019050613301565b5085935050505092915050565b6133448161423e565b82525050565b6000613355826140bb565b61335f81856140ef565b935061336f8185602086016142ce565b61337881614409565b840191505092915050565b600061338e826140c6565b6133988185614100565b93506133a88185602086016142ce565b6133b181614409565b840191505092915050565b60006133c9603483614100565b91507f455243313135353a207472616e7366657220746f206e6f6e204552433131353560008301527f526563656976657220696d706c656d656e7465720000000000000000000000006020830152604082019050919050565b600061342f602883614100565b91507f455243313135353a204552433131353552656365697665722072656a6563746560008301527f6420746f6b656e730000000000000000000000000000000000000000000000006020830152604082019050919050565b6000613495602b83614100565b91507f455243313135353a2062616c616e636520717565727920666f7220746865207a60008301527f65726f20616464726573730000000000000000000000000000000000000000006020830152604082019050919050565b60006134fb602183614100565b91507f5468657265206d75737420626520616e206f70706f6e656e7420746f20706c6160008301527f79000000000000000000000000000000000000000000000000000000000000006020830152604082019050919050565b6000613561602983614100565b91507f455243313135353a2063616c6c6572206973206e6f74206f776e6572206e6f7260008301527f20617070726f76656400000000000000000000000000000000000000000000006020830152604082019050919050565b60006135c7602583614100565b91507f455243313135353a207472616e7366657220746f20746865207a65726f20616460008301527f64726573730000000000000000000000000000000000000000000000000000006020830152604082019050919050565b600061362d603283614100565b91507f455243313135353a207472616e736665722063616c6c6572206973206e6f742060008301527f6f776e6572206e6f7220617070726f76656400000000000000000000000000006020830152604082019050919050565b6000613693603a83614100565b91507f5468657265206d7573742062652061206265742076616c75652073746f72656460008301527f2062792074686520636f6e7472616374202862616c616e6365290000000000006020830152604082019050919050565b60006136f9602a83614100565b91507f455243313135353a20696e73756666696369656e742062616c616e636520666f60008301527f72207472616e73666572000000000000000000000000000000000000000000006020830152604082019050919050565b600061375f602683614100565b91507f596f75206d75737420706c617920696e2074696d6520772e722e742e2054696d60008301527f654c696d697400000000000000000000000000000000000000000000000000006020830152604082019050919050565b60006137c5601d83614100565b91507f55736572206d7573742062652061206d656d626572206f662067616d650000006000830152602082019050919050565b6000613805601183614100565b91507f4d75737420626520796f7572207475726e0000000000000000000000000000006000830152602082019050919050565b6000613845603783614100565b91507f54686572652073686f756c64206265206e6f206f74686572206d6f766573207060008301527f6c61796564206f6e207468652073616d6520706c6163650000000000000000006020830152604082019050919050565b60006138ab602983614100565b91507f455243313135353a2073657474696e6720617070726f76616c2073746174757360008301527f20666f722073656c6600000000000000000000000000000000000000000000006020830152604082019050919050565b6000613911602983614100565b91507f455243313135353a206163636f756e747320616e6420696473206c656e67746860008301527f206d69736d6174636800000000000000000000000000000000000000000000006020830152604082019050919050565b6000613977604183614100565b91507f596f75206d75737420706c61792061206d6f766520696e73696465207468652060008301527f626f6172642020303e3d726f773e3d3220616e6420303e3d636f6c756d6e3e3d60208301527f32000000000000000000000000000000000000000000000000000000000000006040830152606082019050919050565b6000613a03602883614100565b91507f455243313135353a2069647320616e6420616d6f756e7473206c656e6774682060008301527f6d69736d617463680000000000000000000000000000000000000000000000006020830152604082019050919050565b613a6581614296565b82525050565b613a7481614296565b82525050565b613a83816142ad565b82525050565b600061010082019050613a9f600083018b6132ce565b613aac602083018a6132ce565b613ab960408301896132ce565b613ac66060830188613a6b565b613ad36080830187613a6b565b613ae060a0830186613a6b565b613aed60c0830185613a6b565b613afa60e083018461333b565b9998505050505050505050565b600060a082019050613b1c60008301886132ce565b613b2960208301876132ce565b8181036040830152613b3b81866132dd565b90508181036060830152613b4f81856132dd565b90508181036080830152613b63818461334a565b90509695505050505050565b6000606082019050613b8460008301866132ce565b613b9160208301856132ce565b613b9e6040830184613a6b565b949350505050565b600060a082019050613bbb60008301886132ce565b613bc860208301876132ce565b613bd56040830186613a6b565b613be26060830185613a6b565b8181036080830152613bf4818461334a565b90509695505050505050565b6000604082019050613c1560008301856132ce565b613c226020830184613a6b565b9392505050565b600061012082019050613c3f600083018c6132ce565b613c4c602083018b613a6b565b613c59604083018a6132ce565b613c666060830189613a6b565b613c7360808301886132ce565b613c8060a0830187613a6b565b613c8d60c0830186613a6b565b613c9a60e0830185613a6b565b613ca8610100830184613a6b565b9a9950505050505050505050565b60006020820190508181036000830152613cd081846132dd565b905092915050565b60006040820190508181036000830152613cf281856132dd565b90508181036020830152613d0681846132dd565b90509392505050565b6000602082019050613d24600083018461333b565b92915050565b60006020820190508181036000830152613d448184613383565b905092915050565b60006020820190508181036000830152613d65816133bc565b9050919050565b60006020820190508181036000830152613d8581613422565b9050919050565b60006020820190508181036000830152613da581613488565b9050919050565b60006020820190508181036000830152613dc5816134ee565b9050919050565b60006020820190508181036000830152613de581613554565b9050919050565b60006020820190508181036000830152613e05816135ba565b9050919050565b60006020820190508181036000830152613e2581613620565b9050919050565b60006020820190508181036000830152613e4581613686565b9050919050565b60006020820190508181036000830152613e65816136ec565b9050919050565b60006020820190508181036000830152613e8581613752565b9050919050565b60006020820190508181036000830152613ea5816137b8565b9050919050565b60006020820190508181036000830152613ec5816137f8565b9050919050565b60006020820190508181036000830152613ee581613838565b9050919050565b60006020820190508181036000830152613f058161389e565b9050919050565b60006020820190508181036000830152613f2581613904565b9050919050565b60006020820190508181036000830152613f458161396a565b9050919050565b60006020820190508181036000830152613f65816139f6565b9050919050565b6000602082019050613f816000830184613a6b565b92915050565b6000604082019050613f9c6000830185613a6b565b613fa96020830184613a6b565b9392505050565b6000606082019050613fc56000830186613a7a565b613fd26020830185613a6b565b613fdf6040830184613a6b565b949350505050565b6000604051905081810181811067ffffffffffffffff8211171561400e5761400d6143da565b5b8060405250919050565b600067ffffffffffffffff821115614033576140326143da565b5b602082029050602081019050919050565b600067ffffffffffffffff82111561405f5761405e6143da565b5b602082029050602081019050919050565b600067ffffffffffffffff82111561408b5761408a6143da565b5b601f19601f8301169050602081019050919050565b6000819050602082019050919050565b600081519050919050565b600081519050919050565b600081519050919050565b6000602082019050919050565b600082825260208201905092915050565b600082825260208201905092915050565b600082825260208201905092915050565b600061411c82614296565b915061412783614296565b9250827fffffffffffffffffffffffffffffffffffffffffffffffffffffffffffffffff0382111561415c5761415b61437c565b5b828201905092915050565b6000614172826142a0565b915061417d836142a0565b92508260ff038211156141935761419261437c565b5b828201905092915050565b60006141a982614296565b91506141b483614296565b9250817fffffffffffffffffffffffffffffffffffffffffffffffffffffffffffffffff04831182151516156141ed576141ec61437c565b5b828202905092915050565b600061420382614296565b915061420e83614296565b9250828210156142215761422061437c565b5b828203905092915050565b600061423782614276565b9050919050565b60008115159050919050565b60007fffffffff0000000000000000000000000000000000000000000000000000000082169050919050565b600073ffffffffffffffffffffffffffffffffffffffff82169050919050565b6000819050919050565b600060ff82169050919050565b60006142b8826142a0565b9050919050565b82818337600083830152505050565b60005b838110156142ec5780820151818401526020810190506142d1565b838111156142fb576000848401525b50505050565b6000600282049050600182168061431957607f821691505b6020821081141561432d5761432c6143ab565b5b50919050565b600061433e82614296565b91507fffffffffffffffffffffffffffffffffffffffffffffffffffffffffffffffff8214156143715761437061437c565b5b600182019050919050565b7f4e487b7100000000000000000000000000000000000000000000000000000000600052601160045260246000fd5b7f4e487b7100000000000000000000000000000000000000000000000000000000600052602260045260246000fd5b7f4e487b7100000000000000000000000000000000000000000000000000000000600052604160045260246000fd5b6000601f19601f8301169050919050565b60008160e01c9050919050565b600060443d1015614437576144da565b60046000803e61444860005161441a565b6308c379a0811461445957506144da565b60405160043d036004823e80513d602482011167ffffffffffffffff82111715614485575050506144da565b808201805167ffffffffffffffff8111156144a45750505050506144da565b8060208301013d85018111156144bf575050505050506144da565b6144c882614409565b60208401016040528296505050505050505b90565b6144e68161422c565b81146144f157600080fd5b50565b6144fd8161423e565b811461450857600080fd5b50565b6145148161424a565b811461451f57600080fd5b50565b61452b81614296565b811461453657600080fd5b5056fea26469706673582212207c05e86207fe31eff3b7fe73ab49ddd747f82cc59fb6621d7d75327d69cb67f864736f6c63430008000033",
  "immutableReferences": {},
  "source": "import \"../node_modules/@openzeppelin/contracts/token/ERC1155/ERC1155.sol\";\nimport \"../node_modules/@openzeppelin/contracts/token/ERC20/ERC20.sol\";\nimport \"../node_modules/@openzeppelin/contracts/utils/Counters.sol\";\n\npragma solidity ^0.8.0;\n\ncontract TicTacToe is ERC1155 {\n    using Counters for Counters.Counter;\n    Counters.Counter private _tokenIds;\n\n    event Start(uint256 indexed gameId, address indexed player0, address indexed token, uint balance0);\n    event Join(uint256 indexed gameId, address indexed player1, address indexed token, uint balance1);\n    event Play(uint256 indexed gameId, uint turn, uint row, uint col);\n    event Tie(uint256 indexed gameId, address indexed player0, address indexed player1);\n    event Win(uint256 indexed gameId, address indexed winner);\n\n    mapping (uint256 => Game) public games;\n\n    // Main struct that contains all game's info\n    struct Game\n    {\n        address token;\n        address player0;\n        address player1;\n        uint balance0;\n        uint balance1;\n        uint turn;\n        uint time_limit;\n        mapping(uint => mapping(uint => uint)) board;\n        bool isSet;\n    }\n\n    constructor() public ERC1155(\"\") {}\n\n    function start (address token, uint balance) public {\n        ERC20(token).transferFrom(msg.sender, address(this), balance);\n        \n        _tokenIds.increment();\n        uint256 newGameId = _tokenIds.current();\n        Game storage g = games[newGameId];\n        g.isSet = true;\n        restart(newGameId);\n        g.token = token;\n        g.player0 = msg.sender;\n        g.balance0 = balance;\n        Start(newGameId, msg.sender, token, balance);\n    }\n\n    function join (uint256 gameId, uint balance) public {\n        Game storage g = games[gameId];\n\n        require(g.isSet && g.player1 == address(0) && g.balance0 == balance);\n\n        ERC20(g.token).transferFrom(msg.sender, address(this), balance);\n\n        g.player1 = msg.sender;\n        g.balance1 = balance;\n        Join(gameId, msg.sender, g.token, balance);\n    }\n\n    //This function is needed to play a move on the board,\n    //take as arguments the wallet address of the host, row and columns where to put the sign\n    //Positions schema:\n    //[(0,0),(0,1),(0,2)]\n    //[(1,0),(1,1),(1,2)]\n    //[(2,0),(2,1),(2,2)]\n    function play(uint256 gameId, uint row, uint column) public\n    {\n        Game storage g = games[gameId];\n\n        //Assign an int to identify players, player -> 1, opposition -> 2\n        require(msg.sender == g.player0 || msg.sender == g.player1, \"User must be a member of game\");\n        \n        uint8 player = 0;\n        if(msg.sender == g.player1)\n            player = 1;\n\n        // Performs some checks to verify the correctness of the move:\n        // 1 - There must be a bet value stored by the contract (balance)\n        // 2 - There must be an opponent to play\n        // 3 - You must play a move inside the board  0>=row>=2 and 0>=column>=2\n        // 4 - There should be no other moves played on the same place\n        // 5 - You must play in time w.r.t. TimeLimit\n        // 6 - There must be your turn\n        require(g.balance0 > 0, \"There must be a bet value stored by the contract (balance)\");\n        require(g.player1 != address(0), \"There must be an opponent to play\");\n        require(row >= 0 && row < 3 && column >= 0 && column < 3, \"You must play a move inside the board  0>=row>=2 and 0>=column>=2\");\n        require(g.board[row][column] == 0, \"There should be no other moves played on the same place\");\n        require(g.time_limit == 0 || block.timestamp <= g.time_limit, \"You must play in time w.r.t. TimeLimit\");\n        require(g.turn == player, \"Must be your turn\");\n        \n        // Put the move in the board\n        g.board[row][column] = player + 1;\n\n        // If the board is full resend halved balance to each player\n        if(is_board_full(gameId))\n        {\n            ERC20(g.token).transfer(g.player0, g.balance0);\n            ERC20(g.token).transfer(g.player1, g.balance1);\n            g.balance0 = 0;\n            g.balance1 = 0;\n            g.turn = 0;\n            Tie(gameId, g.player0, g.player1);\n            return;\n        }\n\n        // If the last move decreed a winner send thw whole balance to him\n        // and restart the game\n        if(is_winner(gameId, player))\n        {\n            if(player == 0)\n                ERC20(g.token).transfer(g.player0, g.balance0 + g.balance1);\n            else\n                ERC20(g.token).transfer(g.player1, g.balance0 + g.balance1);\n\n            g.balance0 = 0;\n            g.balance1 = 0;\n            g.turn = 0;\n            if(player == 0)\n                Win(gameId, g.player0);\n            else \n                Win(gameId, g.player1);\n            \n            return;\n        }\n\n        // Set player's turn\n        if (player == 0)\n            g.turn = 1;\n        else\n            g.turn = 0;\n\n        // Set time limit for the next move (in seconds), 10 minutes.\n        g.time_limit = block.timestamp + (600);\n        \n        Play(gameId, player, row, column);\n    }\n\n    // This function is called in order to claim the reward in case the opponent\n    // exceed the time limit.\n    function claim_reward(uint256 gameId) public\n    {\n        Game storage g = games[gameId];\n\n        if(g.player1 != address(0)\n        && g.balance0 > 0\n        && block.timestamp > g.time_limit)\n        {\n            if(g.turn == 0)\n                ERC20(g.token).transfer(g.player1, g.balance0 + g.balance1);\n            else\n                ERC20(g.token).transfer(g.player0, g.balance0 + g.balance1);\n            g.balance0 = 0;\n            g.balance1 = 0;\n            g.turn = 0;\n        }\n    }\n\n    function check(uint256 gameId, uint player, uint r1, uint r2, uint r3,\n    uint c1, uint c2, uint c3) private view returns (bool retVal)\n    {\n        Game storage g = games[gameId];\n        if(g.board[r1][c1] == player + 1 && g.board[r2][c2] == player + 1\n        && g.board[r3][c3] == player + 1)\n            return true;\n    }\n\n    // Boolean function that verify wheter the board is in a winning condition or not\n    function is_winner(uint256 gameId, uint player) private view returns (bool winner)\n    {\n        // Verify if there's a winning streak on diagonals\n        if(check(gameId, player, 0, 1, 2, 0, 1, 2) || check(gameId, player, 0, 1, 2, 2, 1, 0))\n            return true;\n\n        // Verify if there's a winning streak on rows and columns\n        for(uint r = 0; r < 3; r++)\n            if(check(gameId, player, r, r, r, 0, 1, 2) || check(gameId, player, 0, 1, 2, r, r, r))\n                return true;\n    }\n\n    // Booleand function that verify wheter the board is full or not\n    // Simply counts number of signs, if thet are 9 then the board is full\n    function is_board_full(uint256 gameId) private view returns (bool retVal)\n    {\n        Game storage g = games[gameId];\n        uint count = 0;\n        for(uint r = 0; r < 3; r++)\n            for(uint c = 0; c < 3; c++)\n                if(g.board[r][c] > 0)\n                    count++;\n        if(count >= 9)\n            return true;\n    }\n\n    function restart(uint256 gameId) private\n    {\n        Game storage g = games[gameId];\n        g.turn = 0;\n        g.balance1 = 0;\n        g.player1 = address(0);\n        g.time_limit = 0;\n\n        for(uint r = 0; r < 3; r++)\n            for(uint c = 0; c < 3; c++)\n                g.board[r][c] = 0;\n    }\n\n    // Debug function to print some attributes of the game\n    function get_game_status(uint256 gameId) public view returns(address, uint, address, uint, address, uint, uint, uint, uint){\n      Game storage g = games[gameId];\n      uint row1 = (100 * (g.board[0][0] + 1)) + (10 * (g.board[0][1] + 1)) + (g.board[0][2] + 1);\n      uint row2 = (100 * (g.board[1][0] + 1)) + (10 * (g.board[1][1] + 1)) + (g.board[1][2] + 1);\n      uint row3 = (100 * (g.board[2][0] + 1)) + (10 * (g.board[2][1] + 1)) + (g.board[2][2] + 1);\n\n      return (\n              g.player0,\n              g.balance0,\n              g.player1,\n              g.balance1,\n              g.token,\n              g.turn,\n              row1,\n              row2,\n              row3\n              );\n    }\n\n    // Debug function to print out the current block timestamp\n    function get_blocktimestamp() public view returns(uint){\n      return(block.timestamp);\n    }\n}",
  "sourcePath": "/Users/ryanhansen/Documents/rpjs/moralis-tic-tac-toe/truffle/contracts/TicTacToe.sol",
  "compiler": {
    "name": "solc",
    "version": "0.8.0+commit.c7dfd78e.Emscripten.clang"
  },
  "schemaVersion": "3.3.3",
  "updatedAt": "2021-04-02T05:00:53.578Z",
  "networkType": "ethereum",
  "devdoc": {
    "kind": "dev",
    "methods": {
      "balanceOf(address,uint256)": {
        "details": "See {IERC1155-balanceOf}. Requirements: - `account` cannot be the zero address."
      },
      "balanceOfBatch(address[],uint256[])": {
        "details": "See {IERC1155-balanceOfBatch}. Requirements: - `accounts` and `ids` must have the same length."
      },
      "isApprovedForAll(address,address)": {
        "details": "See {IERC1155-isApprovedForAll}."
      },
      "safeBatchTransferFrom(address,address,uint256[],uint256[],bytes)": {
        "details": "See {IERC1155-safeBatchTransferFrom}."
      },
      "safeTransferFrom(address,address,uint256,uint256,bytes)": {
        "details": "See {IERC1155-safeTransferFrom}."
      },
      "setApprovalForAll(address,bool)": {
        "details": "See {IERC1155-setApprovalForAll}."
      },
      "supportsInterface(bytes4)": {
        "details": "See {IERC165-supportsInterface}."
      },
      "uri(uint256)": {
        "details": "See {IERC1155MetadataURI-uri}. This implementation returns the same URI for *all* token types. It relies on the token type ID substitution mechanism https://eips.ethereum.org/EIPS/eip-1155#metadata[defined in the EIP]. Clients calling this function must replace the `\\{id\\}` substring with the actual token type ID."
      }
    },
    "version": 1
  },
  "userdoc": {
    "kind": "user",
    "methods": {},
    "version": 1
  }
}